{
  "address": "0xe14058B1c3def306e2cb37535647A04De03Db092",
  "abi": [
    {
      "inputs": [],
      "stateMutability": "nonpayable",
      "type": "constructor"
    },
    {
      "anonymous": false,
      "inputs": [
        {
          "indexed": true,
          "internalType": "address",
          "name": "previousOwner",
          "type": "address"
        },
        {
          "indexed": true,
          "internalType": "address",
          "name": "newOwner",
          "type": "address"
        }
      ],
      "name": "OwnershipTransferred",
      "type": "event"
    },
    {
      "inputs": [],
      "name": "WETH",
      "outputs": [
        {
          "internalType": "contract IERC20",
          "name": "",
          "type": "address"
        }
      ],
      "stateMutability": "view",
      "type": "function"
    },
    {
      "inputs": [],
      "name": "checkContractWETHBalance",
      "outputs": [
        {
          "internalType": "uint256",
          "name": "",
          "type": "uint256"
        }
      ],
      "stateMutability": "view",
      "type": "function"
    },
    {
      "inputs": [
        {
          "internalType": "address",
          "name": "_address",
          "type": "address"
        }
      ],
      "name": "checkERC20BalanceOfAddress",
      "outputs": [
        {
          "internalType": "uint256",
          "name": "",
          "type": "uint256"
        }
      ],
      "stateMutability": "view",
      "type": "function"
    },
    {
      "inputs": [],
      "name": "fund",
      "outputs": [],
      "stateMutability": "payable",
      "type": "function"
    },
    {
      "inputs": [],
      "name": "getIERC20Addressess",
      "outputs": [
        {
          "internalType": "address",
          "name": "_weth",
          "type": "address"
        },
        {
          "internalType": "address",
          "name": "_token",
          "type": "address"
        }
      ],
      "stateMutability": "view",
      "type": "function"
    },
    {
      "inputs": [],
      "name": "owner",
      "outputs": [
        {
          "internalType": "address",
          "name": "",
          "type": "address"
        }
      ],
      "stateMutability": "view",
      "type": "function"
    },
    {
      "inputs": [],
      "name": "renounceOwnership",
      "outputs": [],
      "stateMutability": "nonpayable",
      "type": "function"
    },
    {
      "inputs": [
        {
          "internalType": "address",
          "name": "_token",
          "type": "address"
        }
      ],
      "name": "setERC20",
      "outputs": [],
      "stateMutability": "nonpayable",
      "type": "function"
    },
    {
      "inputs": [],
      "name": "token",
      "outputs": [
        {
          "internalType": "contract IERC20",
          "name": "",
          "type": "address"
        }
      ],
      "stateMutability": "view",
      "type": "function"
    },
    {
      "inputs": [
        {
          "internalType": "address",
          "name": "newOwner",
          "type": "address"
        }
      ],
      "name": "transferOwnership",
      "outputs": [],
      "stateMutability": "nonpayable",
      "type": "function"
    },
    {
      "inputs": [
        {
          "internalType": "address",
          "name": "",
          "type": "address"
        }
      ],
      "name": "userValueStored",
      "outputs": [
        {
          "internalType": "uint256",
          "name": "",
          "type": "uint256"
        }
      ],
      "stateMutability": "view",
      "type": "function"
    },
    {
      "inputs": [
        {
          "internalType": "uint256",
          "name": "",
          "type": "uint256"
        }
      ],
      "name": "users",
      "outputs": [
        {
          "internalType": "address",
          "name": "",
          "type": "address"
        }
      ],
      "stateMutability": "view",
      "type": "function"
    },
    {
      "stateMutability": "payable",
      "type": "receive"
    }
  ],
  "transactionHash": "0x882395a16e21f850ac4584003e05279dbb9a877bdb45fa370a02d83dc0658ce1",
  "args": [],
  "numDeployments": 1,
  "solcInputHash": "a6998b91b03c02fbc63cad11fba83d79",
  "bytecode": "0x6080604052735c69bee701ef814a2b6a3edd4b1652cb9cc5aa6f600260006101000a81548173ffffffffffffffffffffffffffffffffffffffff021916908373ffffffffffffffffffffffffffffffffffffffff160217905550737a250d5630b4cf539739df2c5dacb4c659f2488d600360006101000a81548173ffffffffffffffffffffffffffffffffffffffff021916908373ffffffffffffffffffffffffffffffffffffffff1602179055503480156100ba57600080fd5b506100d76100cc6100dc60201b60201c565b6100e460201b60201c565b6101a8565b600033905090565b60008060009054906101000a900473ffffffffffffffffffffffffffffffffffffffff169050816000806101000a81548173ffffffffffffffffffffffffffffffffffffffff021916908373ffffffffffffffffffffffffffffffffffffffff1602179055508173ffffffffffffffffffffffffffffffffffffffff168173ffffffffffffffffffffffffffffffffffffffff167f8be0079c531659141344cd1fd0a4f28419497f9722a3daafe3b4186f6b6457e060405160405180910390a35050565b610d04806101b76000396000f3fe6080604052600436106100ab5760003560e01c8063b60d428811610064578063b60d4288146101d1578063c1f9e39b146101db578063c29a6fda14610218578063dca8be4614610241578063f2fde38b1461026d578063fc0c546a14610296576100ba565b80630fd7819d146100bf578063365b98b2146100ea57806361c25b9414610127578063715018a6146101645780638da5cb5b1461017b578063ad5c4648146101a6576100ba565b366100ba576100b86102c1565b005b600080fd5b3480156100cb57600080fd5b506100d4610417565b6040516100e191906108af565b60405180910390f35b3480156100f657600080fd5b50610111600480360381019061010c91906108fb565b6104bb565b60405161011e9190610969565b60405180910390f35b34801561013357600080fd5b5061014e600480360381019061014991906109b0565b6104fa565b60405161015b91906108af565b60405180910390f35b34801561017057600080fd5b50610179610512565b005b34801561018757600080fd5b50610190610526565b60405161019d9190610969565b60405180910390f35b3480156101b257600080fd5b506101bb61054f565b6040516101c89190610a3c565b60405180910390f35b6101d96102c1565b005b3480156101e757600080fd5b5061020260048036038101906101fd91906109b0565b610567565b60405161020f91906108af565b60405180910390f35b34801561022457600080fd5b5061023f600480360381019061023a91906109b0565b61061b565b005b34801561024d57600080fd5b5061025661065f565b604051610264929190610a57565b60405180910390f35b34801561027957600080fd5b50610294600480360381019061028f91906109b0565b6106a2565b005b3480156102a257600080fd5b506102ab610726565b6040516102b89190610a3c565b60405180910390f35b34600460003373ffffffffffffffffffffffffffffffffffffffff1673ffffffffffffffffffffffffffffffffffffffff16815260200190815260200160002060008282546103109190610aaf565b9250508190555060005b600580549050811015610414573373ffffffffffffffffffffffffffffffffffffffff166005828154811061035257610351610b05565b5b9060005260206000200160009054906101000a900473ffffffffffffffffffffffffffffffffffffffff1673ffffffffffffffffffffffffffffffffffffffff16141561039e57610414565b6005339080600181540180825580915050600190039060005260206000200160009091909190916101000a81548173ffffffffffffffffffffffffffffffffffffffff021916908373ffffffffffffffffffffffffffffffffffffffff160217905550808061040c90610b34565b91505061031a565b50565b600073c02aaa39b223fe8d0a0e5c4f27ead9083c756cc273ffffffffffffffffffffffffffffffffffffffff166370a08231306040518263ffffffff1660e01b81526004016104669190610969565b60206040518083038186803b15801561047e57600080fd5b505afa158015610492573d6000803e3d6000fd5b505050506040513d601f19601f820116820180604052508101906104b69190610b92565b905090565b600581815481106104cb57600080fd5b906000526020600020016000915054906101000a900473ffffffffffffffffffffffffffffffffffffffff1681565b60046020528060005260406000206000915090505481565b61051a61074c565b61052460006107ca565b565b60008060009054906101000a900473ffffffffffffffffffffffffffffffffffffffff16905090565b73c02aaa39b223fe8d0a0e5c4f27ead9083c756cc281565b6000600160009054906101000a900473ffffffffffffffffffffffffffffffffffffffff1673ffffffffffffffffffffffffffffffffffffffff166370a08231836040518263ffffffff1660e01b81526004016105c49190610969565b60206040518083038186803b1580156105dc57600080fd5b505afa1580156105f0573d6000803e3d6000fd5b505050506040513d601f19601f820116820180604052508101906106149190610b92565b9050919050565b80600160006101000a81548173ffffffffffffffffffffffffffffffffffffffff021916908373ffffffffffffffffffffffffffffffffffffffff16021790555050565b60008073c02aaa39b223fe8d0a0e5c4f27ead9083c756cc2600160009054906101000a900473ffffffffffffffffffffffffffffffffffffffff16915091509091565b6106aa61074c565b600073ffffffffffffffffffffffffffffffffffffffff168173ffffffffffffffffffffffffffffffffffffffff16141561071a576040517f08c379a000000000000000000000000000000000000000000000000000000000815260040161071190610c42565b60405180910390fd5b610723816107ca565b50565b600160009054906101000a900473ffffffffffffffffffffffffffffffffffffffff1681565b61075461088e565b73ffffffffffffffffffffffffffffffffffffffff16610772610526565b73ffffffffffffffffffffffffffffffffffffffff16146107c8576040517f08c379a00000000000000000000000000000000000000000000000000000000081526004016107bf90610cae565b60405180910390fd5b565b60008060009054906101000a900473ffffffffffffffffffffffffffffffffffffffff169050816000806101000a81548173ffffffffffffffffffffffffffffffffffffffff021916908373ffffffffffffffffffffffffffffffffffffffff1602179055508173ffffffffffffffffffffffffffffffffffffffff168173ffffffffffffffffffffffffffffffffffffffff167f8be0079c531659141344cd1fd0a4f28419497f9722a3daafe3b4186f6b6457e060405160405180910390a35050565b600033905090565b6000819050919050565b6108a981610896565b82525050565b60006020820190506108c460008301846108a0565b92915050565b600080fd5b6108d881610896565b81146108e357600080fd5b50565b6000813590506108f5816108cf565b92915050565b600060208284031215610911576109106108ca565b5b600061091f848285016108e6565b91505092915050565b600073ffffffffffffffffffffffffffffffffffffffff82169050919050565b600061095382610928565b9050919050565b61096381610948565b82525050565b600060208201905061097e600083018461095a565b92915050565b61098d81610948565b811461099857600080fd5b50565b6000813590506109aa81610984565b92915050565b6000602082840312156109c6576109c56108ca565b5b60006109d48482850161099b565b91505092915050565b6000819050919050565b6000610a026109fd6109f884610928565b6109dd565b610928565b9050919050565b6000610a14826109e7565b9050919050565b6000610a2682610a09565b9050919050565b610a3681610a1b565b82525050565b6000602082019050610a516000830184610a2d565b92915050565b6000604082019050610a6c600083018561095a565b610a79602083018461095a565b9392505050565b7f4e487b7100000000000000000000000000000000000000000000000000000000600052601160045260246000fd5b6000610aba82610896565b9150610ac583610896565b9250827fffffffffffffffffffffffffffffffffffffffffffffffffffffffffffffffff03821115610afa57610af9610a80565b5b828201905092915050565b7f4e487b7100000000000000000000000000000000000000000000000000000000600052603260045260246000fd5b6000610b3f82610896565b91507fffffffffffffffffffffffffffffffffffffffffffffffffffffffffffffffff821415610b7257610b71610a80565b5b600182019050919050565b600081519050610b8c816108cf565b92915050565b600060208284031215610ba857610ba76108ca565b5b6000610bb684828501610b7d565b91505092915050565b600082825260208201905092915050565b7f4f776e61626c653a206e6577206f776e657220697320746865207a65726f206160008201527f6464726573730000000000000000000000000000000000000000000000000000602082015250565b6000610c2c602683610bbf565b9150610c3782610bd0565b604082019050919050565b60006020820190508181036000830152610c5b81610c1f565b9050919050565b7f4f776e61626c653a2063616c6c6572206973206e6f7420746865206f776e6572600082015250565b6000610c98602083610bbf565b9150610ca382610c62565b602082019050919050565b60006020820190508181036000830152610cc781610c8b565b905091905056fea26469706673582212207e8b731e171cdc324510cecd2649d2196f548eacceb5aa1beaf5ac561651f58564736f6c63430008090033",
  "devdoc": {
    "kind": "dev",
    "methods": {
      "owner()": {
        "details": "Returns the address of the current owner."
      },
      "renounceOwnership()": {
        "details": "Leaves the contract without owner. It will not be possible to call `onlyOwner` functions anymore. Can only be called by the current owner. NOTE: Renouncing ownership will leave the contract without an owner, thereby removing any functionality that is only available to the owner."
      },
      "transferOwnership(address)": {
        "details": "Transfers ownership of the contract to a new account (`newOwner`). Can only be called by the current owner."
      }
    },
    "version": 1
  },
  "userdoc": {
    "kind": "user",
    "methods": {},
    "version": 1
  },
  "storageLayout": {
    "storage": [
      {
        "astId": 7,
        "contract": "contracts/hub.sol:Hub",
        "label": "_owner",
        "offset": 0,
        "slot": "0",
        "type": "t_address"
      },
      {
        "astId": 925,
        "contract": "contracts/hub.sol:Hub",
        "label": "token",
        "offset": 0,
        "slot": "1",
        "type": "t_contract(IERC20)190"
      },
      {
        "astId": 943,
        "contract": "contracts/hub.sol:Hub",
        "label": "uniFactory",
        "offset": 0,
        "slot": "2",
        "type": "t_contract(IUniswapV2Factory)275"
      },
      {
        "astId": 949,
        "contract": "contracts/hub.sol:Hub",
        "label": "uniRouter",
        "offset": 0,
        "slot": "3",
        "type": "t_contract(IUniswapV2Router02)913"
      },
      {
        "astId": 953,
        "contract": "contracts/hub.sol:Hub",
        "label": "userValueStored",
        "offset": 0,
        "slot": "4",
        "type": "t_mapping(t_address,t_uint256)"
      },
      {
        "astId": 956,
        "contract": "contracts/hub.sol:Hub",
        "label": "users",
        "offset": 0,
        "slot": "5",
        "type": "t_array(t_address)dyn_storage"
      }
    ],
    "types": {
      "t_address": {
        "encoding": "inplace",
        "label": "address",
        "numberOfBytes": "20"
      },
      "t_array(t_address)dyn_storage": {
        "base": "t_address",
        "encoding": "dynamic_array",
        "label": "address[]",
        "numberOfBytes": "32"
      },
      "t_contract(IERC20)190": {
        "encoding": "inplace",
        "label": "contract IERC20",
        "numberOfBytes": "20"
      },
      "t_contract(IUniswapV2Factory)275": {
        "encoding": "inplace",
        "label": "contract IUniswapV2Factory",
        "numberOfBytes": "20"
      },
      "t_contract(IUniswapV2Router02)913": {
        "encoding": "inplace",
        "label": "contract IUniswapV2Router02",
        "numberOfBytes": "20"
      },
      "t_mapping(t_address,t_uint256)": {
        "encoding": "mapping",
        "key": "t_address",
        "label": "mapping(address => uint256)",
        "numberOfBytes": "32",
        "value": "t_uint256"
      },
      "t_uint256": {
        "encoding": "inplace",
        "label": "uint256",
        "numberOfBytes": "32"
      }
    }
  }
}